{
  "contractName": "VotingSystem",
  "abi": [
    {
      "inputs": [
        {
          "internalType": "uint256",
          "name": "_durationInMinutes",
          "type": "uint256"
        }
      ],
      "stateMutability": "nonpayable",
      "type": "constructor"
    },
    {
      "anonymous": false,
      "inputs": [
        {
          "indexed": false,
          "internalType": "uint256",
          "name": "candidateId",
          "type": "uint256"
        },
        {
          "indexed": false,
          "internalType": "string",
          "name": "name",
          "type": "string"
        }
      ],
      "name": "CandidateAdded",
      "type": "event"
    },
    {
      "anonymous": false,
      "inputs": [
        {
          "indexed": false,
          "internalType": "address",
          "name": "voter",
          "type": "address"
        },
        {
          "indexed": false,
          "internalType": "uint256",
          "name": "candidateId",
          "type": "uint256"
        }
      ],
      "name": "VoteCast",
      "type": "event"
    },
    {
      "anonymous": false,
      "inputs": [
        {
          "indexed": false,
          "internalType": "address",
          "name": "voter",
          "type": "address"
        }
      ],
      "name": "VoterRegistered",
      "type": "event"
    },
    {
      "inputs": [
        {
          "internalType": "uint256",
          "name": "",
          "type": "uint256"
        }
      ],
      "name": "candidates",
      "outputs": [
        {
          "internalType": "string",
          "name": "name",
          "type": "string"
        },
        {
          "internalType": "uint256",
          "name": "voteCount",
          "type": "uint256"
        }
      ],
      "stateMutability": "view",
      "type": "function",
      "constant": true
    },
    {
      "inputs": [],
      "name": "owner",
      "outputs": [
        {
          "internalType": "address",
          "name": "",
          "type": "address"
        }
      ],
      "stateMutability": "view",
      "type": "function",
      "constant": true
    },
    {
      "inputs": [
        {
          "internalType": "address",
          "name": "",
          "type": "address"
        }
      ],
      "name": "voters",
      "outputs": [
        {
          "internalType": "bool",
          "name": "isRegistered",
          "type": "bool"
        },
        {
          "internalType": "bool",
          "name": "hasVoted",
          "type": "bool"
        },
        {
          "internalType": "uint256",
          "name": "votedCandidateId",
          "type": "uint256"
        }
      ],
      "stateMutability": "view",
      "type": "function",
      "constant": true
    },
    {
      "inputs": [],
      "name": "votingEnd",
      "outputs": [
        {
          "internalType": "uint256",
          "name": "",
          "type": "uint256"
        }
      ],
      "stateMutability": "view",
      "type": "function",
      "constant": true
    },
    {
      "inputs": [],
      "name": "votingStart",
      "outputs": [
        {
          "internalType": "uint256",
          "name": "",
          "type": "uint256"
        }
      ],
      "stateMutability": "view",
      "type": "function",
      "constant": true
    },
    {
      "inputs": [
        {
          "internalType": "string",
          "name": "_name",
          "type": "string"
        }
      ],
      "name": "addCandidate",
      "outputs": [],
      "stateMutability": "nonpayable",
      "type": "function"
    },
    {
      "inputs": [
        {
          "internalType": "address",
          "name": "_voter",
          "type": "address"
        }
      ],
      "name": "registerVoter",
      "outputs": [],
      "stateMutability": "nonpayable",
      "type": "function"
    },
    {
      "inputs": [
        {
          "internalType": "uint256",
          "name": "_candidateId",
          "type": "uint256"
        }
      ],
      "name": "vote",
      "outputs": [],
      "stateMutability": "nonpayable",
      "type": "function"
    },
    {
      "inputs": [],
      "name": "getCandidateCount",
      "outputs": [
        {
          "internalType": "uint256",
          "name": "",
          "type": "uint256"
        }
      ],
      "stateMutability": "view",
      "type": "function",
      "constant": true
    },
    {
      "inputs": [],
      "name": "getVotingStatus",
      "outputs": [
        {
          "internalType": "bool",
          "name": "",
          "type": "bool"
        }
      ],
      "stateMutability": "view",
      "type": "function",
      "constant": true
    },
    {
      "inputs": [],
      "name": "getWinner",
      "outputs": [
        {
          "internalType": "string",
          "name": "winnerName",
          "type": "string"
        },
        {
          "internalType": "uint256",
          "name": "winningVoteCount",
          "type": "uint256"
        }
      ],
      "stateMutability": "view",
      "type": "function",
      "constant": true
    }
  ],
  "bytecode": "0x608060405234801561001057600080fd5b50604051610c58380380610c5883398101604081905261002f91610063565b600080546001600160a01b031916331790554260035561005081603c610092565b61005a90426100af565b600455506100c2565b60006020828403121561007557600080fd5b5051919050565b634e487b7160e01b600052601160045260246000fd5b80820281158282048414176100a9576100a961007c565b92915050565b808201808211156100a9576100a961007c565b610b87806100d16000396000f3fe608060405234801561001057600080fd5b50600436106100a95760003560e01c8063462e91ec11610071578063462e91ec1461011b578063581c281c1461012e57806385a38635146101465780638da5cb5b1461014f5780638e7ea5b21461017a578063a3ec138d1461018257600080fd5b80630121b93f146100ae578063101158af146100c357806330a56347146100df5780633477ee2e146100e757806338db6dd314610108575b600080fd5b6100c16100bc3660046107cc565b6101d3565b005b6100cc60035481565b6040519081526020015b60405180910390f35b6002546100cc565b6100fa6100f53660046107cc565b6103b7565b6040516100d692919061082b565b6100c161011636600461084d565b610473565b6100c1610129366004610893565b610562565b61013661062e565b60405190151581526020016100d6565b6100cc60045481565b600054610162906001600160a01b031681565b6040516001600160a01b0390911681526020016100d6565b6100fa610648565b6101b661019036600461084d565b6001602081905260009182526040909120805491015460ff808316926101009004169083565b6040805193151584529115156020840152908201526060016100d6565b60035442101580156101e6575060045442105b6102375760405162461bcd60e51b815260206004820152601c60248201527f566f74696e67206973206e6f742063757272656e746c79206f70656e0000000060448201526064015b60405180910390fd5b336000908152600160205260409020805460ff166102975760405162461bcd60e51b815260206004820152601e60248201527f596f7520617265206e6f74207265676973746572656420746f20766f74650000604482015260640161022e565b8054610100900460ff16156102e75760405162461bcd60e51b8152602060048201526016602482015275165bdd481a185d9948185b1c9958591e481d9bdd195960521b604482015260640161022e565b600254821061032f5760405162461bcd60e51b8152602060048201526014602482015273125b9d985b1a590818d85b991a59185d1948125160621b604482015260640161022e565b805461ff00191661010017815560018101829055600280548390811061035757610357610944565b60009182526020822060016002909202010180549161037583610970565b909155505060408051338152602081018490527fa36cc2bebb74db33e9f88110a07ef56e1b31b24b4c4f51b54b1664266e29f45b910160405180910390a15050565b600281815481106103c757600080fd5b90600052602060002090600202016000915090508060000180546103ea90610989565b80601f016020809104026020016040519081016040528092919081815260200182805461041690610989565b80156104635780601f1061043857610100808354040283529160200191610463565b820191906000526020600020905b81548152906001019060200180831161044657829003601f168201915b5050505050908060010154905082565b6000546001600160a01b0316331461049d5760405162461bcd60e51b815260040161022e906109c3565b6001600160a01b03811660009081526001602052604090205460ff16156105065760405162461bcd60e51b815260206004820152601b60248201527f566f74657220697320616c726561647920726567697374657265640000000000604482015260640161022e565b6001600160a01b038116600081815260016020818152604092839020805460ff191690921790915590519182527fb6be2187d059cc2a55fe29e0e503b566e1e0f8c8780096e185429350acffd3dd91015b60405180910390a150565b6000546001600160a01b0316331461058c5760405162461bcd60e51b815260040161022e906109c3565b604080518082019091528181526000602082018190526002805460018101825591819052825191027f405787fa12a823e0f2b7631cc41b3ba8828b3321ca811111fa75cd3aa3bb5ace019081906105e39082610a57565b50602091909101516001918201556002547fe83b2a43e7e82d975c8a0a6d2f045153c869e111136a34d1889ab7b598e396a39161061f91610b17565b82604051610557929190610b30565b60006003544210158015610643575060045442105b905090565b6060600060045442101561069e5760405162461bcd60e51b815260206004820152601860248201527f566f74696e6720686173206e6f7420656e646564207965740000000000000000604482015260640161022e565b50600080805b6002548110156107175782600282815481106106c2576106c2610944565b906000526020600020906002020160010154111561070557600281815481106106ed576106ed610944565b90600052602060002090600202016001015492508091505b8061070f81610970565b9150506106a4565b506002818154811061072b5761072b610944565b9060005260206000209060020201600001805461074790610989565b80601f016020809104026020016040519081016040528092919081815260200182805461077390610989565b80156107c05780601f10610795576101008083540402835291602001916107c0565b820191906000526020600020905b8154815290600101906020018083116107a357829003601f168201915b50505050509250509091565b6000602082840312156107de57600080fd5b5035919050565b6000815180845260005b8181101561080b576020818501810151868301820152016107ef565b506000602082860101526020601f19601f83011685010191505092915050565b60408152600061083e60408301856107e5565b90508260208301529392505050565b60006020828403121561085f57600080fd5b81356001600160a01b038116811461087657600080fd5b9392505050565b634e487b7160e01b600052604160045260246000fd5b6000602082840312156108a557600080fd5b813567ffffffffffffffff808211156108bd57600080fd5b818401915084601f8301126108d157600080fd5b8135818111156108e3576108e361087d565b604051601f8201601f19908116603f0116810190838211818310171561090b5761090b61087d565b8160405282815287602084870101111561092457600080fd5b826020860160208301376000928101602001929092525095945050505050565b634e487b7160e01b600052603260045260246000fd5b634e487b7160e01b600052601160045260246000fd5b6000600182016109825761098261095a565b5060010190565b600181811c9082168061099d57607f821691505b6020821081036109bd57634e487b7160e01b600052602260045260246000fd5b50919050565b60208082526025908201527f4f6e6c7920746865206f776e65722063616e2063616c6c20746869732066756e60408201526431ba34b7b760d91b606082015260800190565b601f821115610a5257600081815260208120601f850160051c81016020861015610a2f5750805b601f850160051c820191505b81811015610a4e57828155600101610a3b565b5050505b505050565b815167ffffffffffffffff811115610a7157610a7161087d565b610a8581610a7f8454610989565b84610a08565b602080601f831160018114610aba5760008415610aa25750858301515b600019600386901b1c1916600185901b178555610a4e565b600085815260208120601f198616915b82811015610ae957888601518255948401946001909101908401610aca565b5085821015610b075787850151600019600388901b60f8161c191681555b5050505050600190811b01905550565b81810381811115610b2a57610b2a61095a565b92915050565b828152604060208201526000610b4960408301846107e5565b94935050505056fea2646970667358221220b47c52c6aabfa96252c47a7e86e7fa778ec9c41878860b86f61e70ef31ea74e464736f6c63430008130033",
  "immutableReferences": {},
  "source": "// SPDX-License-Identifier: MIT\r\npragma solidity ^0.8.19;\r\n\r\ncontract VotingSystem {\r\n    struct Candidate {\r\n        string name;\r\n        uint256 voteCount;\r\n    }\r\n\r\n    struct Voter {\r\n        bool isRegistered;\r\n        bool hasVoted;\r\n        uint256 votedCandidateId;\r\n    }\r\n\r\n    address public owner;\r\n    mapping(address => Voter) public voters;\r\n    Candidate[] public candidates;\r\n    uint256 public votingStart;\r\n    uint256 public votingEnd;\r\n\r\n    event VoterRegistered(address voter);\r\n    event CandidateAdded(uint256 candidateId, string name);\r\n    event VoteCast(address voter, uint256 candidateId);\r\n\r\n    modifier onlyOwner() {\r\n        require(msg.sender == owner, \"Only the owner can call this function\");\r\n        _;\r\n    }\r\n\r\n    modifier votingPeriod() {\r\n        require(block.timestamp >= votingStart && block.timestamp < votingEnd, \"Voting is not currently open\");\r\n        _;\r\n    }\r\n\r\n    constructor(uint256 _durationInMinutes) {\r\n        owner = msg.sender;\r\n        votingStart = block.timestamp;\r\n        votingEnd = block.timestamp + (_durationInMinutes * 1 minutes);\r\n    }\r\n\r\n    function addCandidate(string memory _name) public onlyOwner {\r\n        candidates.push(Candidate({\r\n            name: _name,\r\n            voteCount: 0\r\n        }));\r\n        emit CandidateAdded(candidates.length - 1, _name);\r\n    }\r\n\r\n    function registerVoter(address _voter) public onlyOwner {\r\n        require(!voters[_voter].isRegistered, \"Voter is already registered\");\r\n        voters[_voter].isRegistered = true;\r\n        emit VoterRegistered(_voter);\r\n    }\r\n\r\n    function vote(uint256 _candidateId) public votingPeriod {\r\n        Voter storage sender = voters[msg.sender];\r\n        require(sender.isRegistered, \"You are not registered to vote\");\r\n        require(!sender.hasVoted, \"You have already voted\");\r\n        require(_candidateId < candidates.length, \"Invalid candidate ID\");\r\n\r\n        sender.hasVoted = true;\r\n        sender.votedCandidateId = _candidateId;\r\n\r\n        candidates[_candidateId].voteCount++;\r\n\r\n        emit VoteCast(msg.sender, _candidateId);\r\n    }\r\n\r\n    function getCandidateCount() public view returns (uint256) {\r\n        return candidates.length;\r\n    }\r\n\r\n    function getVotingStatus() public view returns (bool) {\r\n        return (block.timestamp >= votingStart && block.timestamp < votingEnd);\r\n    }\r\n\r\n    function getWinner() public view returns (string memory winnerName, uint256 winningVoteCount) {\r\n        require(block.timestamp >= votingEnd, \"Voting has not ended yet\");\r\n        \r\n        winningVoteCount = 0;\r\n        uint256 winningCandidateId = 0;\r\n        \r\n        for (uint256 i = 0; i < candidates.length; i++) {\r\n            if (candidates[i].voteCount > winningVoteCount) {\r\n                winningVoteCount = candidates[i].voteCount;\r\n                winningCandidateId = i;\r\n            }\r\n        }\r\n        \r\n        winnerName = candidates[winningCandidateId].name;\r\n    }\r\n}",
  "sourcePath": "G:\\projects\\React\\dapp-vote\\contracts\\Voting.sol",
  "compiler": {
    "name": "solc",
    "version": "0.8.19+commit.7dd6d404.Emscripten.clang"
  },
  "schemaVersion": "3.4.16",
  "updatedAt": "2024-09-18T06:25:56.217Z",
  "networkType": "ethereum",
  "devdoc": {
    "kind": "dev",
    "methods": {},
    "version": 1
  },
  "userdoc": {
    "kind": "user",
    "methods": {},
    "version": 1
  }
}